{
  "_format": "hh-sol-artifact-1",
  "contractName": "StakingPool",
  "sourceName": "contracts/StakingContract.sol",
  "abi": [
    {
      "inputs": [
        {
          "internalType": "address",
          "name": "_stakeTokenAddress",
          "type": "address"
        },
        {
          "internalType": "address",
          "name": "_rewardTokenAddress",
          "type": "address"
        }
      ],
      "stateMutability": "nonpayable",
      "type": "constructor"
    },
    {
      "anonymous": false,
      "inputs": [
        {
          "indexed": false,
          "internalType": "uint256",
          "name": "poolID",
          "type": "uint256"
        },
        {
          "indexed": true,
          "internalType": "address",
          "name": "account",
          "type": "address"
        },
        {
          "indexed": true,
          "internalType": "uint256",
          "name": "amount",
          "type": "uint256"
        },
        {
          "indexed": false,
          "internalType": "uint256",
          "name": "at",
          "type": "uint256"
        }
      ],
      "name": "RewardClaim",
      "type": "event"
    },
    {
      "anonymous": false,
      "inputs": [
        {
          "indexed": false,
          "internalType": "uint256",
          "name": "poolID",
          "type": "uint256"
        },
        {
          "indexed": true,
          "internalType": "address",
          "name": "account",
          "type": "address"
        },
        {
          "indexed": true,
          "internalType": "uint256",
          "name": "amount",
          "type": "uint256"
        },
        {
          "indexed": false,
          "internalType": "uint256",
          "name": "at",
          "type": "uint256"
        }
      ],
      "name": "Stake",
      "type": "event"
    },
    {
      "anonymous": false,
      "inputs": [
        {
          "indexed": false,
          "internalType": "uint256",
          "name": "poolID",
          "type": "uint256"
        },
        {
          "indexed": true,
          "internalType": "address",
          "name": "account",
          "type": "address"
        },
        {
          "indexed": true,
          "internalType": "uint256",
          "name": "amount",
          "type": "uint256"
        },
        {
          "indexed": false,
          "internalType": "uint256",
          "name": "at",
          "type": "uint256"
        }
      ],
      "name": "Unstake",
      "type": "event"
    },
    {
      "anonymous": false,
      "inputs": [
        {
          "indexed": false,
          "internalType": "uint256",
          "name": "PoolID",
          "type": "uint256"
        },
        {
          "indexed": false,
          "internalType": "uint256",
          "name": "poolReward",
          "type": "uint256"
        },
        {
          "indexed": false,
          "internalType": "uint256",
          "name": "at",
          "type": "uint256"
        },
        {
          "indexed": false,
          "internalType": "address",
          "name": "by",
          "type": "address"
        }
      ],
      "name": "poolCreated",
      "type": "event"
    },
    {
      "inputs": [
        {
          "internalType": "uint256",
          "name": "_poolID",
          "type": "uint256"
        }
      ],
      "name": "claimReward",
      "outputs": [],
      "stateMutability": "nonpayable",
      "type": "function"
    },
    {
      "inputs": [
        {
          "internalType": "uint256",
          "name": "_rewardRate",
          "type": "uint256"
        }
      ],
      "name": "createPool",
      "outputs": [],
      "stateMutability": "nonpayable",
      "type": "function"
    },
    {
      "inputs": [
        {
          "internalType": "uint256",
          "name": "_id",
          "type": "uint256"
        }
      ],
      "name": "getPoolByID",
      "outputs": [
        {
          "components": [
            {
              "internalType": "uint256",
              "name": "totalStakers",
              "type": "uint256"
            },
            {
              "internalType": "uint256",
              "name": "totalStaked",
              "type": "uint256"
            },
            {
              "internalType": "uint256",
              "name": "rewardReserve",
              "type": "uint256"
            },
            {
              "internalType": "uint256",
              "name": "rewardRate",
              "type": "uint256"
            }
          ],
          "internalType": "struct StakingPool.PoolDataReturnedType",
          "name": "_pool",
          "type": "tuple"
        }
      ],
      "stateMutability": "view",
      "type": "function"
    },
    {
      "inputs": [
        {
          "internalType": "uint256",
          "name": "_poolID",
          "type": "uint256"
        },
        {
          "internalType": "address",
          "name": "_staker",
          "type": "address"
        }
      ],
      "name": "getUserClaimableReward",
      "outputs": [
        {
          "internalType": "uint256",
          "name": "_reward",
          "type": "uint256"
        }
      ],
      "stateMutability": "view",
      "type": "function"
    },
    {
      "inputs": [
        {
          "internalType": "uint256",
          "name": "_poolID",
          "type": "uint256"
        },
        {
          "internalType": "address",
          "name": "_account",
          "type": "address"
        }
      ],
      "name": "getUserPoolRewardPerSec",
      "outputs": [
        {
          "internalType": "uint256",
          "name": "_rewardPerSecond",
          "type": "uint256"
        }
      ],
      "stateMutability": "view",
      "type": "function"
    },
    {
      "inputs": [
        {
          "internalType": "uint256",
          "name": "_poolID",
          "type": "uint256"
        },
        {
          "internalType": "address",
          "name": "_account",
          "type": "address"
        }
      ],
      "name": "getUserStakeBalance",
      "outputs": [
        {
          "internalType": "uint256",
          "name": "_stake",
          "type": "uint256"
        }
      ],
      "stateMutability": "view",
      "type": "function"
    },
    {
      "inputs": [],
      "name": "id",
      "outputs": [
        {
          "internalType": "uint256",
          "name": "",
          "type": "uint256"
        }
      ],
      "stateMutability": "view",
      "type": "function"
    },
    {
      "inputs": [
        {
          "internalType": "uint256",
          "name": "_poolID",
          "type": "uint256"
        },
        {
          "internalType": "uint256",
          "name": "_amount",
          "type": "uint256"
        }
      ],
      "name": "stake",
      "outputs": [],
      "stateMutability": "nonpayable",
      "type": "function"
    },
    {
      "inputs": [
        {
          "internalType": "uint256",
          "name": "_poolID",
          "type": "uint256"
        }
      ],
      "name": "unstake",
      "outputs": [],
      "stateMutability": "nonpayable",
      "type": "function"
    }
  ],
  "bytecode": "0x60806040523480156200001157600080fd5b50604051620017003803806200170083398181016040528101906200003791906200012a565b816000806101000a81548173ffffffffffffffffffffffffffffffffffffffff021916908373ffffffffffffffffffffffffffffffffffffffff16021790555080600160006101000a81548173ffffffffffffffffffffffffffffffffffffffff021916908373ffffffffffffffffffffffffffffffffffffffff160217905550505062000171565b600080fd5b600073ffffffffffffffffffffffffffffffffffffffff82169050919050565b6000620000f282620000c5565b9050919050565b6200010481620000e5565b81146200011057600080fd5b50565b6000815190506200012481620000f9565b92915050565b60008060408385031215620001445762000143620000c0565b5b6000620001548582860162000113565b9250506020620001678582860162000113565b9150509250929050565b61157f80620001816000396000f3fe608060405234801561001057600080fd5b50600436106100935760003560e01c80638259e6a0116100665780638259e6a0146101305780639cdbaaf51461014c578063a76b168f1461017c578063ae169a50146101ac578063af640d0f146101c857610093565b80631353b776146100985780632e17de78146100c85780635055149c146100e45780637b0472f014610114575b600080fd5b6100b260048036038101906100ad9190610f0a565b6101e6565b6040516100bf9190610f59565b60405180910390f35b6100e260048036038101906100dd9190610f74565b610244565b005b6100fe60048036038101906100f99190610f74565b610567565b60405161010b9190611005565b60405180910390f35b61012e60048036038101906101299190611020565b6105ef565b005b61014a60048036038101906101459190610f74565b61090f565b005b61016660048036038101906101619190610f0a565b610a53565b6040516101739190610f59565b60405180910390f35b61019660048036038101906101919190610f0a565b610a67565b6040516101a39190610f59565b60405180910390f35b6101c660048036038101906101c19190610f74565b610ac5565b005b6101d0610cd4565b6040516101dd9190610f59565b60405180910390f35b60006003600084815260200190815260200160002060050160008373ffffffffffffffffffffffffffffffffffffffff1673ffffffffffffffffffffffffffffffffffffffff16815260200190815260200160002054905092915050565b600060036000838152602001908152602001600020905060008160040160003373ffffffffffffffffffffffffffffffffffffffff1673ffffffffffffffffffffffffffffffffffffffff168152602001908152602001600020549050600081116102e4576040517f08c379a00000000000000000000000000000000000000000000000000000000081526004016102db90611109565b60405180910390fd5b60006102f08433610cda565b905060008360040160003373ffffffffffffffffffffffffffffffffffffffff1673ffffffffffffffffffffffffffffffffffffffff1681526020019081526020016000208190555082600001600081548092919061034e90611158565b919050555060008360060160003373ffffffffffffffffffffffffffffffffffffffff1673ffffffffffffffffffffffffffffffffffffffff16815260200190815260200160002081905550818360010160008282546103ae9190611181565b92505081905550808360020160008282546103c99190611181565b9250508190555060008054906101000a900473ffffffffffffffffffffffffffffffffffffffff1673ffffffffffffffffffffffffffffffffffffffff1663a9059cbb33846040518363ffffffff1660e01b815260040161042b9291906111c4565b6020604051808303816000875af115801561044a573d6000803e3d6000fd5b505050506040513d601f19601f8201168201806040525081019061046e9190611225565b50600160009054906101000a900473ffffffffffffffffffffffffffffffffffffffff1673ffffffffffffffffffffffffffffffffffffffff1663a9059cbb33836040518363ffffffff1660e01b81526004016104cc9291906111c4565b6020604051808303816000875af11580156104eb573d6000803e3d6000fd5b505050506040513d601f19601f8201168201806040525081019061050f9190611225565b50813373ffffffffffffffffffffffffffffffffffffffff167fc1e00202ee2c06861d326fc6374026b751863ff64218ccbaa38c3e603a8e72c28642604051610559929190611252565b60405180910390a350505050565b61056f610e49565b604051806080016040528060036000858152602001908152602001600020600001548152602001600360008581526020019081526020016000206001015481526020016003600085815260200190815260200160002060020154815260200160036000858152602001908152602001600020600301548152509050919050565b600060036000848152602001908152602001600020905060008054906101000a900473ffffffffffffffffffffffffffffffffffffffff1673ffffffffffffffffffffffffffffffffffffffff166323b872dd3330856040518463ffffffff1660e01b81526004016106639392919061127b565b6020604051808303816000875af1158015610682573d6000803e3d6000fd5b505050506040513d601f19601f820116820180604052508101906106a69190611225565b5060008160040160003373ffffffffffffffffffffffffffffffffffffffff1673ffffffffffffffffffffffffffffffffffffffff168152602001908152602001600020549050600081111561074c5760006107028533610cda565b9050808360060160003373ffffffffffffffffffffffffffffffffffffffff1673ffffffffffffffffffffffffffffffffffffffff16815260200190815260200160002081905550505b6000810361076f57816000016000815480929190610769906112b2565b91905055505b828260040160003373ffffffffffffffffffffffffffffffffffffffff1673ffffffffffffffffffffffffffffffffffffffff16815260200190815260200160002060008282546107c091906112fa565b92505081905550828260010160008282546107db91906112fa565b9250508190555061082d848360040160003373ffffffffffffffffffffffffffffffffffffffff1673ffffffffffffffffffffffffffffffffffffffff16815260200190815260200160002054610e0a565b8260050160003373ffffffffffffffffffffffffffffffffffffffff1673ffffffffffffffffffffffffffffffffffffffff16815260200190815260200160002081905550428260070160003373ffffffffffffffffffffffffffffffffffffffff1673ffffffffffffffffffffffffffffffffffffffff16815260200190815260200160002081905550823373ffffffffffffffffffffffffffffffffffffffff167f507ac39eb33610191cd8fd54286e91c5cc464c262861643be3978f5a9f18ab028642604051610901929190611252565b60405180910390a350505050565b600160009054906101000a900473ffffffffffffffffffffffffffffffffffffffff1673ffffffffffffffffffffffffffffffffffffffff166323b872dd333068056bc75e2d631000006040518463ffffffff1660e01b815260040161097793929190611373565b6020604051808303816000875af1158015610996573d6000803e3d6000fd5b505050506040513d601f19601f820116820180604052508101906109ba9190611225565b506000600360006002548152602001908152602001600020905081816003018190555068056bc75e2d6310000081600201819055507f1e9508a4adba2a00cbe57907315ae75b7766a40f03929616c91866787591f8ca60025468056bc75e2d631000004233604051610a2f94939291906113aa565b60405180910390a160026000815480929190610a4a906112b2565b91905055505050565b6000610a5f8383610cda565b905092915050565b60006003600084815260200190815260200160002060040160008373ffffffffffffffffffffffffffffffffffffffff1673ffffffffffffffffffffffffffffffffffffffff16815260200190815260200160002054905092915050565b60006003600083815260200190815260200160002090506000610ae88333610cda565b905060008111610b2d576040517f08c379a0000000000000000000000000000000000000000000000000000000008152600401610b2490611487565b60405180910390fd5b428260070160003373ffffffffffffffffffffffffffffffffffffffff1673ffffffffffffffffffffffffffffffffffffffff1681526020019081526020016000208190555080826002016000828254610b879190611181565b9250508190555060008260060160003373ffffffffffffffffffffffffffffffffffffffff1673ffffffffffffffffffffffffffffffffffffffff16815260200190815260200160002081905550600160009054906101000a900473ffffffffffffffffffffffffffffffffffffffff1673ffffffffffffffffffffffffffffffffffffffff1663a9059cbb33836040518363ffffffff1660e01b8152600401610c329291906111c4565b6020604051808303816000875af1158015610c51573d6000803e3d6000fd5b505050506040513d601f19601f82011682018060405250810190610c759190611225565b610c7e57600080fd5b803373ffffffffffffffffffffffffffffffffffffffff167f74289868ef22736f76b614839846fb0d56f9249c43fbed24f1b87278e1aa74418542604051610cc7929190611252565b60405180910390a3505050565b60025481565b6000806003600085815260200190815260200160002060050160008473ffffffffffffffffffffffffffffffffffffffff1673ffffffffffffffffffffffffffffffffffffffff16815260200190815260200160002054905060006003600086815260200190815260200160002060070160008573ffffffffffffffffffffffffffffffffffffffff1673ffffffffffffffffffffffffffffffffffffffff1681526020019081526020016000205442610d949190611181565b90506003600086815260200190815260200160002060060160008573ffffffffffffffffffffffffffffffffffffffff1673ffffffffffffffffffffffffffffffffffffffff168152602001908152602001600020548183610df691906114a7565b610e0091906112fa565b9250505092915050565b60008062015180905080600360008681526020019081526020016000206003015484610e3691906114a7565b610e409190611518565b91505092915050565b6040518060800160405280600081526020016000815260200160008152602001600081525090565b600080fd5b6000819050919050565b610e8981610e76565b8114610e9457600080fd5b50565b600081359050610ea681610e80565b92915050565b600073ffffffffffffffffffffffffffffffffffffffff82169050919050565b6000610ed782610eac565b9050919050565b610ee781610ecc565b8114610ef257600080fd5b50565b600081359050610f0481610ede565b92915050565b60008060408385031215610f2157610f20610e71565b5b6000610f2f85828601610e97565b9250506020610f4085828601610ef5565b9150509250929050565b610f5381610e76565b82525050565b6000602082019050610f6e6000830184610f4a565b92915050565b600060208284031215610f8a57610f89610e71565b5b6000610f9884828501610e97565b91505092915050565b610faa81610e76565b82525050565b608082016000820151610fc66000850182610fa1565b506020820151610fd96020850182610fa1565b506040820151610fec6040850182610fa1565b506060820151610fff6060850182610fa1565b50505050565b600060808201905061101a6000830184610fb0565b92915050565b6000806040838503121561103757611036610e71565b5b600061104585828601610e97565b925050602061105685828601610e97565b9150509250929050565b600082825260208201905092915050565b7f5374616b696e6720706f6f6c20636f6e74726163743a20596f7520646f206e6f60008201527f74206861766520616e7920746f6b656e207374616b656420696e20746869732060208201527f706f6f6c00000000000000000000000000000000000000000000000000000000604082015250565b60006110f3604483611060565b91506110fe82611071565b606082019050919050565b60006020820190508181036000830152611122816110e6565b9050919050565b7f4e487b7100000000000000000000000000000000000000000000000000000000600052601160045260246000fd5b600061116382610e76565b91506000820361117657611175611129565b5b600182039050919050565b600061118c82610e76565b915061119783610e76565b92508282039050818111156111af576111ae611129565b5b92915050565b6111be81610ecc565b82525050565b60006040820190506111d960008301856111b5565b6111e66020830184610f4a565b9392505050565b60008115159050919050565b611202816111ed565b811461120d57600080fd5b50565b60008151905061121f816111f9565b92915050565b60006020828403121561123b5761123a610e71565b5b600061124984828501611210565b91505092915050565b60006040820190506112676000830185610f4a565b6112746020830184610f4a565b9392505050565b600060608201905061129060008301866111b5565b61129d60208301856111b5565b6112aa6040830184610f4a565b949350505050565b60006112bd82610e76565b91507fffffffffffffffffffffffffffffffffffffffffffffffffffffffffffffffff82036112ef576112ee611129565b5b600182019050919050565b600061130582610e76565b915061131083610e76565b925082820190508082111561132857611327611129565b5b92915050565b6000819050919050565b6000819050919050565b600061135d6113586113538461132e565b611338565b610e76565b9050919050565b61136d81611342565b82525050565b600060608201905061138860008301866111b5565b61139560208301856111b5565b6113a26040830184611364565b949350505050565b60006080820190506113bf6000830187610f4a565b6113cc6020830186611364565b6113d96040830185610f4a565b6113e660608301846111b5565b95945050505050565b7f5374616b696e6720706f6f6c20636f6e74726163743a20596f7520646f206e6f60008201527f74206861766520616e792072657761726420746f20626520636c61696d65642060208201527f696e207468697320706f6f6c0000000000000000000000000000000000000000604082015250565b6000611471604c83611060565b915061147c826113ef565b606082019050919050565b600060208201905081810360008301526114a081611464565b9050919050565b60006114b282610e76565b91506114bd83610e76565b92508282026114cb81610e76565b915082820484148315176114e2576114e1611129565b5b5092915050565b7f4e487b7100000000000000000000000000000000000000000000000000000000600052601260045260246000fd5b600061152382610e76565b915061152e83610e76565b92508261153e5761153d6114e9565b5b82820490509291505056fea264697066735822122001a6b647a341f8d8efc55dc232117ff555870e38ea3dcc85b73f2f2c46c92ca264736f6c63430008140033",
  "linkReferences": {},
  "deployedLinkReferences": {}
}